{
  "contractName": "Identity",
  "abi": [
    {
      "anonymous": false,
      "inputs": [
        {
          "indexed": true,
          "internalType": "address",
          "name": "wallet",
          "type": "address"
        },
        {
          "indexed": false,
          "internalType": "string",
          "name": "details",
          "type": "string"
        },
        {
          "indexed": false,
          "internalType": "uint256",
          "name": "timestamp",
          "type": "uint256"
        }
      ],
      "name": "IncidentLogged",
      "type": "event"
    },
    {
      "anonymous": false,
      "inputs": [
        {
          "indexed": true,
          "internalType": "address",
          "name": "wallet",
          "type": "address"
        },
        {
          "indexed": false,
          "internalType": "string",
          "name": "name",
          "type": "string"
        }
      ],
      "name": "TouristRegistered",
      "type": "event"
    },
    {
      "inputs": [
        {
          "internalType": "string",
          "name": "",
          "type": "string"
        }
      ],
      "name": "passportUsed",
      "outputs": [
        {
          "internalType": "bool",
          "name": "",
          "type": "bool"
        }
      ],
      "stateMutability": "view",
      "type": "function"
    },
    {
      "inputs": [
        {
          "internalType": "address",
          "name": "",
          "type": "address"
        }
      ],
      "name": "tourists",
      "outputs": [
        {
          "internalType": "string",
          "name": "name",
          "type": "string"
        },
        {
          "internalType": "string",
          "name": "passportHash",
          "type": "string"
        },
        {
          "internalType": "bool",
          "name": "isVerified",
          "type": "bool"
        },
        {
          "internalType": "address",
          "name": "walletAddress",
          "type": "address"
        }
      ],
      "stateMutability": "view",
      "type": "function"
    },
    {
      "inputs": [
        {
          "internalType": "string",
          "name": "_name",
          "type": "string"
        },
        {
          "internalType": "string",
          "name": "_passportHash",
          "type": "string"
        }
      ],
      "name": "registerTourist",
      "outputs": [],
      "stateMutability": "nonpayable",
      "type": "function"
    },
    {
      "inputs": [
        {
          "internalType": "address",
          "name": "_tourist",
          "type": "address"
        }
      ],
      "name": "verifyTourist",
      "outputs": [
        {
          "internalType": "bool",
          "name": "",
          "type": "bool"
        },
        {
          "internalType": "string",
          "name": "",
          "type": "string"
        }
      ],
      "stateMutability": "view",
      "type": "function"
    },
    {
      "inputs": [
        {
          "internalType": "string",
          "name": "_details",
          "type": "string"
        }
      ],
      "name": "logIncident",
      "outputs": [],
      "stateMutability": "nonpayable",
      "type": "function"
    }
  ],
  "bytecode": "0x608060405234801561001057600080fd5b50610e29806100206000396000f3fe608060405234801561001057600080fd5b50600436106100575760003560e01c806382adb9f21461005c578063848aa84d1461008f578063c20af9fd146100ab578063f7124925146100dc578063fdd0f6c81461010c575b600080fd5b61007660048036038101906100719190610895565b610128565b6040516100869493929190610b46565b60405180910390f35b6100a960048036038101906100a491906108be565b610295565b005b6100c560048036038101906100c09190610895565b610376565b6040516100d3929190610af4565b60405180910390f35b6100f660048036038101906100f191906108be565b61049f565b6040516101039190610ad9565b60405180910390f35b610126600480360381019061012191906108ff565b6104d5565b005b600060205280600052604060002060009150905080600001805461014b90610d3b565b80601f016020809104026020016040519081016040528092919081815260200182805461017790610d3b565b80156101c45780601f10610199576101008083540402835291602001916101c4565b820191906000526020600020905b8154815290600101906020018083116101a757829003601f168201915b5050505050908060010180546101d990610d3b565b80601f016020809104026020016040519081016040528092919081815260200182805461020590610d3b565b80156102525780601f1061022757610100808354040283529160200191610252565b820191906000526020600020905b81548152906001019060200180831161023557829003601f168201915b5050505050908060020160009054906101000a900460ff16908060020160019054906101000a900473ffffffffffffffffffffffffffffffffffffffff16905084565b6000803373ffffffffffffffffffffffffffffffffffffffff1673ffffffffffffffffffffffffffffffffffffffff16815260200190815260200160002060020160009054906101000a900460ff16610323576040517f08c379a000000000000000000000000000000000000000000000000000000000815260040161031a90610be9565b60405180910390fd5b3373ffffffffffffffffffffffffffffffffffffffff167f750ce864e4edb74ab46e0e34ef5bd0d0c7cad57756173a426c1c7ee121198103824260405161036b929190610b99565b60405180910390a250565b600060606000808473ffffffffffffffffffffffffffffffffffffffff1673ffffffffffffffffffffffffffffffffffffffff16815260200190815260200160002060020160009054906101000a900460ff166000808573ffffffffffffffffffffffffffffffffffffffff1673ffffffffffffffffffffffffffffffffffffffff16815260200190815260200160002060000180805461041690610d3b565b80601f016020809104026020016040519081016040528092919081815260200182805461044290610d3b565b801561048f5780601f106104645761010080835404028352916020019161048f565b820191906000526020600020905b81548152906001019060200180831161047257829003601f168201915b5050505050905091509150915091565b6001818051602081018201805184825260208301602085012081835280955050505050506000915054906101000a900460ff1681565b60008060003373ffffffffffffffffffffffffffffffffffffffff1673ffffffffffffffffffffffffffffffffffffffff168152602001908152602001600020600001805461052390610d3b565b905014610565576040517f08c379a000000000000000000000000000000000000000000000000000000000815260040161055c90610bc9565b60405180910390fd5b6001816040516105759190610ac2565b908152602001604051809103902060009054906101000a900460ff16156105d1576040517f08c379a00000000000000000000000000000000000000000000000000000000081526004016105c890610c09565b60405180910390fd5b60405180608001604052808381526020018281526020016001151581526020013373ffffffffffffffffffffffffffffffffffffffff168152506000803373ffffffffffffffffffffffffffffffffffffffff1673ffffffffffffffffffffffffffffffffffffffff1681526020019081526020016000206000820151816000019080519060200190610665929190610775565b506020820151816001019080519060200190610682929190610775565b5060408201518160020160006101000a81548160ff02191690831515021790555060608201518160020160016101000a81548173ffffffffffffffffffffffffffffffffffffffff021916908373ffffffffffffffffffffffffffffffffffffffff160217905550905050600180826040516106fe9190610ac2565b908152602001604051809103902060006101000a81548160ff0219169083151502179055503373ffffffffffffffffffffffffffffffffffffffff167fbc893bb14723c79ec07b43496d1ddfbf7561aacc7902b98bd79cdc97608a0985836040516107699190610b24565b60405180910390a25050565b82805461078190610d3b565b90600052602060002090601f0160209004810192826107a357600085556107ea565b82601f106107bc57805160ff19168380011785556107ea565b828001600101855582156107ea579182015b828111156107e95782518255916020019190600101906107ce565b5b5090506107f791906107fb565b5090565b5b808211156108145760008160009055506001016107fc565b5090565b600061082b61082684610c5a565b610c29565b90508281526020810184848401111561084357600080fd5b61084e848285610cf9565b509392505050565b60008135905061086581610ddc565b92915050565b600082601f83011261087c57600080fd5b813561088c848260208601610818565b91505092915050565b6000602082840312156108a757600080fd5b60006108b584828501610856565b91505092915050565b6000602082840312156108d057600080fd5b600082013567ffffffffffffffff8111156108ea57600080fd5b6108f68482850161086b565b91505092915050565b6000806040838503121561091257600080fd5b600083013567ffffffffffffffff81111561092c57600080fd5b6109388582860161086b565b925050602083013567ffffffffffffffff81111561095557600080fd5b6109618582860161086b565b9150509250929050565b61097481610cb1565b82525050565b61098381610cc3565b82525050565b600061099482610c8a565b61099e8185610c95565b93506109ae818560208601610d08565b6109b781610dcb565b840191505092915050565b60006109cd82610c8a565b6109d78185610ca6565b93506109e7818560208601610d08565b80840191505092915050565b6000610a00601283610c95565b91507f416c7265616479207265676973746572656400000000000000000000000000006000830152602082019050919050565b6000610a40601883610c95565b91507f4e6f742061207265676973746572656420746f757269737400000000000000006000830152602082019050919050565b6000610a80601583610c95565b91507f50617373706f727420616c7265616479207573656400000000000000000000006000830152602082019050919050565b610abc81610cef565b82525050565b6000610ace82846109c2565b915081905092915050565b6000602082019050610aee600083018461097a565b92915050565b6000604082019050610b09600083018561097a565b8181036020830152610b1b8184610989565b90509392505050565b60006020820190508181036000830152610b3e8184610989565b905092915050565b60006080820190508181036000830152610b608187610989565b90508181036020830152610b748186610989565b9050610b83604083018561097a565b610b90606083018461096b565b95945050505050565b60006040820190508181036000830152610bb38185610989565b9050610bc26020830184610ab3565b9392505050565b60006020820190508181036000830152610be2816109f3565b9050919050565b60006020820190508181036000830152610c0281610a33565b9050919050565b60006020820190508181036000830152610c2281610a73565b9050919050565b6000604051905081810181811067ffffffffffffffff82111715610c5057610c4f610d9c565b5b8060405250919050565b600067ffffffffffffffff821115610c7557610c74610d9c565b5b601f19601f8301169050602081019050919050565b600081519050919050565b600082825260208201905092915050565b600081905092915050565b6000610cbc82610ccf565b9050919050565b60008115159050919050565b600073ffffffffffffffffffffffffffffffffffffffff82169050919050565b6000819050919050565b82818337600083830152505050565b60005b83811015610d26578082015181840152602081019050610d0b565b83811115610d35576000848401525b50505050565b60006002820490506001821680610d5357607f821691505b60208210811415610d6757610d66610d6d565b5b50919050565b7f4e487b7100000000000000000000000000000000000000000000000000000000600052602260045260246000fd5b7f4e487b7100000000000000000000000000000000000000000000000000000000600052604160045260246000fd5b6000601f19601f8301169050919050565b610de581610cb1565b8114610df057600080fd5b5056fea2646970667358221220aa12de5507d4556a59abd9f136e2e41a5101d9f298fff8c8792ed5c08adc655d64736f6c63430008000033",
  "immutableReferences": {},
  "source": "// SPDX-License-Identifier: MIT\npragma solidity ^0.8.0;\n\ncontract Identity {\n    struct Tourist {\n        string name;\n        string passportHash; // Hash of passport/ID\n        bool isVerified;\n        address walletAddress;\n    }\n\n    mapping(address => Tourist) public tourists;\n    mapping(string => bool) public passportUsed;\n    \n    event TouristRegistered(address indexed wallet, string name);\n    event IncidentLogged(address indexed wallet, string details, uint256 timestamp);\n\n    function registerTourist(string memory _name, string memory _passportHash) public {\n        require(bytes(tourists[msg.sender].name).length == 0, \"Already registered\");\n        require(!passportUsed[_passportHash], \"Passport already used\");\n\n        tourists[msg.sender] = Tourist(_name, _passportHash, true, msg.sender);\n        passportUsed[_passportHash] = true;\n\n        emit TouristRegistered(msg.sender, _name);\n    }\n\n    function verifyTourist(address _tourist) public view returns (bool, string memory) {\n        return (tourists[_tourist].isVerified, tourists[_tourist].name);\n    }\n\n    function logIncident(string memory _details) public {\n        require(tourists[msg.sender].isVerified, \"Not a registered tourist\");\n        emit IncidentLogged(msg.sender, _details, block.timestamp);\n    }\n}\n",
  "sourcePath": "D:\\Capstone\\Project\\blockchain\\contracts\\Identity.sol",
  "compiler": {
    "name": "solc",
    "version": "0.8.0+commit.c7dfd78e.Emscripten.clang"
  },
  "schemaVersion": "3.4.16",
  "updatedAt": "2026-02-11T08:58:36.184Z",
  "devdoc": {
    "kind": "dev",
    "methods": {},
    "version": 1
  },
  "userdoc": {
    "kind": "user",
    "methods": {},
    "version": 1
  }
}