{
  "contractName": "TouristSafety",
  "abi": [
    {
      "inputs": [],
      "stateMutability": "nonpayable",
      "type": "constructor"
    },
    {
      "anonymous": false,
      "inputs": [
        {
          "indexed": true,
          "internalType": "uint256",
          "name": "incidentId",
          "type": "uint256"
        },
        {
          "indexed": true,
          "internalType": "address",
          "name": "reporter",
          "type": "address"
        },
        {
          "indexed": false,
          "internalType": "string",
          "name": "location",
          "type": "string"
        }
      ],
      "name": "IncidentReported",
      "type": "event"
    },
    {
      "anonymous": false,
      "inputs": [
        {
          "indexed": true,
          "internalType": "uint256",
          "name": "incidentId",
          "type": "uint256"
        },
        {
          "indexed": false,
          "internalType": "bool",
          "name": "verified",
          "type": "bool"
        }
      ],
      "name": "IncidentVerified",
      "type": "event"
    },
    {
      "anonymous": false,
      "inputs": [
        {
          "indexed": true,
          "internalType": "address",
          "name": "touristAddress",
          "type": "address"
        },
        {
          "indexed": false,
          "internalType": "string",
          "name": "name",
          "type": "string"
        }
      ],
      "name": "TouristRegistered",
      "type": "event"
    },
    {
      "inputs": [],
      "name": "admin",
      "outputs": [
        {
          "internalType": "address",
          "name": "",
          "type": "address"
        }
      ],
      "stateMutability": "view",
      "type": "function",
      "constant": true
    },
    {
      "inputs": [
        {
          "internalType": "uint256",
          "name": "",
          "type": "uint256"
        }
      ],
      "name": "incidents",
      "outputs": [
        {
          "internalType": "address",
          "name": "reporter",
          "type": "address"
        },
        {
          "internalType": "string",
          "name": "location",
          "type": "string"
        },
        {
          "internalType": "string",
          "name": "details",
          "type": "string"
        },
        {
          "internalType": "uint256",
          "name": "timestamp",
          "type": "uint256"
        },
        {
          "internalType": "bool",
          "name": "verified",
          "type": "bool"
        }
      ],
      "stateMutability": "view",
      "type": "function",
      "constant": true
    },
    {
      "inputs": [
        {
          "internalType": "address",
          "name": "",
          "type": "address"
        }
      ],
      "name": "tourists",
      "outputs": [
        {
          "internalType": "string",
          "name": "name",
          "type": "string"
        },
        {
          "internalType": "string",
          "name": "identityHash",
          "type": "string"
        },
        {
          "internalType": "bool",
          "name": "isRegistered",
          "type": "bool"
        }
      ],
      "stateMutability": "view",
      "type": "function",
      "constant": true
    },
    {
      "inputs": [
        {
          "internalType": "string",
          "name": "_name",
          "type": "string"
        },
        {
          "internalType": "string",
          "name": "_identityHash",
          "type": "string"
        }
      ],
      "name": "registerTourist",
      "outputs": [],
      "stateMutability": "nonpayable",
      "type": "function"
    },
    {
      "inputs": [
        {
          "internalType": "string",
          "name": "_location",
          "type": "string"
        },
        {
          "internalType": "string",
          "name": "_details",
          "type": "string"
        }
      ],
      "name": "reportIncident",
      "outputs": [],
      "stateMutability": "nonpayable",
      "type": "function"
    },
    {
      "inputs": [
        {
          "internalType": "uint256",
          "name": "_incidentId",
          "type": "uint256"
        }
      ],
      "name": "verifyIncident",
      "outputs": [],
      "stateMutability": "nonpayable",
      "type": "function"
    },
    {
      "inputs": [],
      "name": "getIncidentCount",
      "outputs": [
        {
          "internalType": "uint256",
          "name": "",
          "type": "uint256"
        }
      ],
      "stateMutability": "view",
      "type": "function",
      "constant": true
    }
  ],
  "bytecode": "0x608060405234801561001057600080fd5b5033600260006101000a81548173ffffffffffffffffffffffffffffffffffffffff021916908373ffffffffffffffffffffffffffffffffffffffff160217905550611001806100616000396000f3fe608060405234801561001057600080fd5b506004361061007d5760003560e01c8063959626921161005b57806395962692146100ec578063a6c6a8f31461010a578063f851a4401461013e578063fdd0f6c81461015c5761007d565b806319aabee51461008257806382adb9f21461009e5780638e14b294146100d0575b600080fd5b61009c60048036038101906100979190610aca565b610178565b005b6100b860048036038101906100b39190610a35565b6102ee565b6040516100c793929190610cd2565b60405180910390f35b6100ea60048036038101906100e59190610a5e565b610435565b005b6100f46105b0565b6040516101019190610d77565b60405180910390f35b610124600480360381019061011f9190610aca565b6105bd565b604051610135959493929190610c34565b60405180910390f35b610146610740565b6040516101539190610c19565b60405180910390f35b61017660048036038101906101719190610a5e565b610766565b005b600260009054906101000a900473ffffffffffffffffffffffffffffffffffffffff1673ffffffffffffffffffffffffffffffffffffffff163373ffffffffffffffffffffffffffffffffffffffff1614610208576040517f08c379a00000000000000000000000000000000000000000000000000000000081526004016101ff90610d37565b60405180910390fd5b600180549050811061024f576040517f08c379a000000000000000000000000000000000000000000000000000000000815260040161024690610d57565b60405180910390fd5b600180828154811061028a577f4e487b7100000000000000000000000000000000000000000000000000000000600052603260045260246000fd5b906000526020600020906005020160040160006101000a81548160ff021916908315150217905550807fc03fbd7d552042e57e35dcd96d675a74eb33022bbc56cbb1a05039425ebc90d560016040516102e39190610c95565b60405180910390a250565b600060205280600052604060002060009150905080600001805461031190610ecd565b80601f016020809104026020016040519081016040528092919081815260200182805461033d90610ecd565b801561038a5780601f1061035f5761010080835404028352916020019161038a565b820191906000526020600020905b81548152906001019060200180831161036d57829003601f168201915b50505050509080600101805461039f90610ecd565b80601f01602080910402602001604051908101604052809291908181526020018280546103cb90610ecd565b80156104185780601f106103ed57610100808354040283529160200191610418565b820191906000526020600020905b8154815290600101906020018083116103fb57829003601f168201915b5050505050908060020160009054906101000a900460ff16905083565b60016040518060a001604052803373ffffffffffffffffffffffffffffffffffffffff16815260200184815260200183815260200142815260200160001515815250908060018154018082558091505060019003906000526020600020906005020160009091909190915060008201518160000160006101000a81548173ffffffffffffffffffffffffffffffffffffffff021916908373ffffffffffffffffffffffffffffffffffffffff1602179055506020820151816001019080519060200190610503929190610900565b506040820151816002019080519060200190610520929190610900565b506060820151816003015560808201518160040160006101000a81548160ff02191690831515021790555050503373ffffffffffffffffffffffffffffffffffffffff16600180805490506105759190610e0f565b7f37948cebbcc4a2f701a360b7be9db0b5a2af420096f50d1db23c131429bd260b846040516105a49190610cb0565b60405180910390a35050565b6000600180549050905090565b600181815481106105cd57600080fd5b90600052602060002090600502016000915090508060000160009054906101000a900473ffffffffffffffffffffffffffffffffffffffff169080600101805461061690610ecd565b80601f016020809104026020016040519081016040528092919081815260200182805461064290610ecd565b801561068f5780601f106106645761010080835404028352916020019161068f565b820191906000526020600020905b81548152906001019060200180831161067257829003601f168201915b5050505050908060020180546106a490610ecd565b80601f01602080910402602001604051908101604052809291908181526020018280546106d090610ecd565b801561071d5780601f106106f25761010080835404028352916020019161071d565b820191906000526020600020905b81548152906001019060200180831161070057829003601f168201915b5050505050908060030154908060040160009054906101000a900460ff16905085565b600260009054906101000a900473ffffffffffffffffffffffffffffffffffffffff1681565b6000803373ffffffffffffffffffffffffffffffffffffffff1673ffffffffffffffffffffffffffffffffffffffff16815260200190815260200160002060020160009054906101000a900460ff16156107f5576040517f08c379a00000000000000000000000000000000000000000000000000000000081526004016107ec90610d17565b60405180910390fd5b6040518060600160405280838152602001828152602001600115158152506000803373ffffffffffffffffffffffffffffffffffffffff1673ffffffffffffffffffffffffffffffffffffffff168152602001908152602001600020600082015181600001908051906020019061086d929190610900565b50602082015181600101908051906020019061088a929190610900565b5060408201518160020160006101000a81548160ff0219169083151502179055509050503373ffffffffffffffffffffffffffffffffffffffff167fbc893bb14723c79ec07b43496d1ddfbf7561aacc7902b98bd79cdc97608a0985836040516108f49190610cb0565b60405180910390a25050565b82805461090c90610ecd565b90600052602060002090601f01602090048101928261092e5760008555610975565b82601f1061094757805160ff1916838001178555610975565b82800160010185558215610975579182015b82811115610974578251825591602001919060010190610959565b5b5090506109829190610986565b5090565b5b8082111561099f576000816000905550600101610987565b5090565b60006109b66109b184610dc3565b610d92565b9050828152602081018484840111156109ce57600080fd5b6109d9848285610e8b565b509392505050565b6000813590506109f081610f9d565b92915050565b600082601f830112610a0757600080fd5b8135610a178482602086016109a3565b91505092915050565b600081359050610a2f81610fb4565b92915050565b600060208284031215610a4757600080fd5b6000610a55848285016109e1565b91505092915050565b60008060408385031215610a7157600080fd5b600083013567ffffffffffffffff811115610a8b57600080fd5b610a97858286016109f6565b925050602083013567ffffffffffffffff811115610ab457600080fd5b610ac0858286016109f6565b9150509250929050565b600060208284031215610adc57600080fd5b6000610aea84828501610a20565b91505092915050565b610afc81610e43565b82525050565b610b0b81610e55565b82525050565b6000610b1c82610df3565b610b268185610dfe565b9350610b36818560208601610e9a565b610b3f81610f8c565b840191505092915050565b6000610b57601283610dfe565b91507f416c7265616479207265676973746572656400000000000000000000000000006000830152602082019050919050565b6000610b97601583610dfe565b91507f4f6e6c792061646d696e2063616e2076657269667900000000000000000000006000830152602082019050919050565b6000610bd7601383610dfe565b91507f496e76616c696420696e636964656e74204944000000000000000000000000006000830152602082019050919050565b610c1381610e81565b82525050565b6000602082019050610c2e6000830184610af3565b92915050565b600060a082019050610c496000830188610af3565b8181036020830152610c5b8187610b11565b90508181036040830152610c6f8186610b11565b9050610c7e6060830185610c0a565b610c8b6080830184610b02565b9695505050505050565b6000602082019050610caa6000830184610b02565b92915050565b60006020820190508181036000830152610cca8184610b11565b905092915050565b60006060820190508181036000830152610cec8186610b11565b90508181036020830152610d008185610b11565b9050610d0f6040830184610b02565b949350505050565b60006020820190508181036000830152610d3081610b4a565b9050919050565b60006020820190508181036000830152610d5081610b8a565b9050919050565b60006020820190508181036000830152610d7081610bca565b9050919050565b6000602082019050610d8c6000830184610c0a565b92915050565b6000604051905081810181811067ffffffffffffffff82111715610db957610db8610f5d565b5b8060405250919050565b600067ffffffffffffffff821115610dde57610ddd610f5d565b5b601f19601f8301169050602081019050919050565b600081519050919050565b600082825260208201905092915050565b6000610e1a82610e81565b9150610e2583610e81565b925082821015610e3857610e37610eff565b5b828203905092915050565b6000610e4e82610e61565b9050919050565b60008115159050919050565b600073ffffffffffffffffffffffffffffffffffffffff82169050919050565b6000819050919050565b82818337600083830152505050565b60005b83811015610eb8578082015181840152602081019050610e9d565b83811115610ec7576000848401525b50505050565b60006002820490506001821680610ee557607f821691505b60208210811415610ef957610ef8610f2e565b5b50919050565b7f4e487b7100000000000000000000000000000000000000000000000000000000600052601160045260246000fd5b7f4e487b7100000000000000000000000000000000000000000000000000000000600052602260045260246000fd5b7f4e487b7100000000000000000000000000000000000000000000000000000000600052604160045260246000fd5b6000601f19601f8301169050919050565b610fa681610e43565b8114610fb157600080fd5b50565b610fbd81610e81565b8114610fc857600080fd5b5056fea264697066735822122002ac7161c728f82cc4caaa29993e15e0196526a22102a8ea18fc4ca349746af364736f6c63430008000033",
  "immutableReferences": {},
  "source": "// SPDX-License-Identifier: MIT\npragma solidity ^0.8.0;\n\ncontract TouristSafety {\n    struct Tourist {\n        string name;\n        string identityHash;\n        bool isRegistered;\n    }\n\n    struct Incident {\n        address reporter;\n        string location;\n        string details;\n        uint256 timestamp;\n        bool verified;\n    }\n\n    mapping(address => Tourist) public tourists;\n    Incident[] public incidents;\n    address public admin;\n\n    event TouristRegistered(address indexed touristAddress, string name);\n    event IncidentReported(uint256 indexed incidentId, address indexed reporter, string location);\n    event IncidentVerified(uint256 indexed incidentId, bool verified);\n\n    constructor() {\n        admin = msg.sender;\n    }\n\n    function registerTourist(string memory _name, string memory _identityHash) public {\n        require(!tourists[msg.sender].isRegistered, \"Already registered\");\n        tourists[msg.sender] = Tourist(_name, _identityHash, true);\n        emit TouristRegistered(msg.sender, _name);\n    }\n\n    function reportIncident(string memory _location, string memory _details) public {\n        incidents.push(Incident(msg.sender, _location, _details, block.timestamp, false));\n        emit IncidentReported(incidents.length - 1, msg.sender, _location);\n    }\n\n    function verifyIncident(uint256 _incidentId) public {\n        require(msg.sender == admin, \"Only admin can verify\");\n        require(_incidentId < incidents.length, \"Invalid incident ID\");\n        incidents[_incidentId].verified = true;\n        emit IncidentVerified(_incidentId, true);\n    }\n\n    function getIncidentCount() public view returns (uint256) {\n        return incidents.length;\n    }\n}\n",
  "sourcePath": "D:\\Capstone\\Project\\blockchain\\contracts\\TouristSafety.sol",
  "compiler": {
    "name": "solc",
    "version": "0.8.0+commit.c7dfd78e.Emscripten.clang"
  },
  "schemaVersion": "3.4.16",
  "updatedAt": "2026-02-02T05:36:23.555Z",
  "networkType": "ethereum",
  "devdoc": {
    "kind": "dev",
    "methods": {},
    "version": 1
  },
  "userdoc": {
    "kind": "user",
    "methods": {},
    "version": 1
  }
}